:100000000A128A11F02FFF1B0D2883137F18831704
:100010000008840A0319FF0A080000308A00040857
:10002000840A820700344534723472346F34723477
:100030002034203420342034203420342034203420
:10004000203420342034003452344634493444348B
:10005000203454346134673420345234653461348C
:0800600064346534723400348D
:100848000030831203138C1A01300800831203133B
:100858008C1E2A2C1A08080000300A128A117324E8
:100868000A128A1101300A128A11732408003134DD
:10087800323433343434353436343734383431342C
:1008880032343134323400347E088A007F088200E2
:1008980048240A128A118000840A04087D06031974
:1008A8000034FF0A0319FE0A4C2CF000701C602C5F
:1008B800831203130616632C831203130612F01C0B
:1008C800672C8616682C8612701D6C2C06176D2CEA
:1008D8000613F01D712C8617080086130800F30014
:1008E80083120313061173080A128A1159240A1273
:1008F8008A118312031386150B30F2006230F1005F
:10090800F10B842CF20B842C000083120313861144
:100918000800F40074080F39F1007108F200740837
:10092800F039F1007108F3008312031306157308F8
:10093800F10004300310F10CFF3E031D9E2C7108DA
:100948000A128A1159240A128A118312031386156E
:100958001A30F100F10BAE2C00008312031386113C
:1009680072080A128A1159240A128A11831203136F
:1009780086151A30F100F10BBF2C00008312031307
:1009880086110800FA01FB017A087507F800760855
:10099800F7000318F70AFA1BF7037708F900790834
:1009A80083120313FF00780884000A128A110320B7
:1009B8000A128A110038031908007A087507F80026
:1009C8007608F7000318F70AFA1BF7037708F90007
:1009D800790883120313FF00780884000A128A1129
:1009E80003200A128A110A128A118D240A128A1106
:1009F8000130FA070318FB0A0030FB07C82CF70080
:100A08007708013A031D292D74087F3EF500750803
:100A1800FA007A08F50004300310F50CFF3E031DB8
:100A2800102D7508F6007608F8007A080F39F500D9
:100A38007508F90078080A128A1173240A128A11B3
:100A480079080A128A11732408007708023A031DEC
:100A580008007408BF3EF5007508FA007A08F5002A
:100A680004300310F50CFF3E031D352D7508F60004
:100A78007608F8007A080F39F5007508F900780843
:100A88000A128A1173240A128A1179080A128A1121
:100A98007324080000300A128A1159240A128A1194
:100AA8003430F500F130F400F40B582DF50B582DC7
:100AB8005D2D03300A128A1173240A128A110D302F
:100AC800F500FB30F400F40B672DF50B672D6C2D4A
:100AD80003300A128A1173240A128A111D30F50094
:100AE8009130F400F40B762DF50B762D03300A12B5
:100AF8008A1173240A128A1102300A128A11732485
:100B08000A128A1102300A128A1173240A128A11EF
:100B180008300A128A1173240A128A1100300A1244
:100B28008A1173240A128A110C300A128A1173244A
:100B38000A128A1100300A128A1173240A128A11C1
:100B480006300A128A117324080083120313A101C4
:100B5800F31FBB2DF009F109F209F309F00A031993
:100B6800F10A0319F20A0319F30AA101A10AF71FEE
:100B7800CC2DF409F509F609F709F40A0319F50A61
:100B88000319F60A0319F70A0130F8007808A106D4
:100B98000030A5000030A4000030A3000030A200FF
:100BA80073087204710470040319212EA001A00AAD
:100BB800F31BEC2D0130F8000310F00DF10DF20DD0
:100BC800F30DF80BE02D0130F8007808A007DC2DB4
:100BD8000130F8000310A20DA30DA40DA50DF80B0C
:100BE800EE2D73087702031D032E72087602031D8B
:100BF800032E71087502031D032E70087402031C6E
:100C0800142E7008F4027108031C710FF5027208A3
:100C1800031C720FF6027308031C730FF7022214E9
:100C280001300310F30CF20CF10CF00CFF3E031D25
:100C3800152E0130A002031DEC2D210803192F2EBB
:100C4800A209A309A409A509A20A0319A30A031959
:100C5800A40A0319A50A2508F3002408F2002308AA
:100C6800F1002208F00008003D3084004B30831268
:100C78000313B6000408B7000D30B8003608840026
:100C880083130008B900B60A3708840039088000C1
:100C9800B70AB80B422E8316031386010A128A116B
:100CA8004E250A128A110A128A1130240A128A1150
:100CB800F401F40A01300A128A1103250A128A1172
:100CC8001230F5008030F6000A128A11C6240A1282
:100CD8008A11003083120313A9000030A8002530C0
:100CE800A7008030A6000A128A1104270A128A1166
:100CF80083120313C9010A128A1124240A128A11C1
:100D0800003A03197F2E83120313CA010C304A02DA
:100D18000318AE2E0A128A1124240A128A11003AE4
:100D28000319A82E0A128A112A240A128A11831278
:100D38000313B6004A083D3E84003608831380003A
:100D48000130B6003608CA070C30831203134A0272
:100D5800031C8E2E45084706003003190130B600E3
:100D6800B70141083F06B80043083806B9003D08F6
:100D78003906BA0036083A06BB003708BC003C08FA
:100D88003B040319F22E46084806003003190130C7
:100D9800B600B70140083E06B80042083806B90058
:100DA80044083906BA0036083A06BB003708BC00C2
:100DB8003C083B040319F22EF401F40A02300A122B
:100DC8008A1103250A128A113D30F5000030F60019
:100DD8000A128A11C6240A128A117F2EF401F40A13
:100DE80001300A128A1103250A128A110130F5000E
:100DF8008030F6000A128A11C6240A128A117F2E40
:100E0800831203132608AA002708AB002808AC00A1
:100E18002908AD0006300310AA0DAB0DAC0DAD0DC1
:100E2800FF3E031D0F2F2D08F3002C08F2002B089E
:100E3800F1002A08F0000030AE001230AF007A301E
:100E4800B0000030B1002608B2002708B300280817
:100E5800B4002908B50006300310B20DB30DB40D67
:100E6800B50DFF3E031D302FB209B309B409B5090A
:100E7800B20A0319B30A0319B40A0319B50A3208E6
:100E8800AE0733080318330F4A2F4B2FAF07340828
:100E98000318340F502F512FB00735080318350A9F
:100EA800B1073108F7003008F6002F08F5002E08C2
:100EB800F4000A128A11A9250A128A117108FA0186
:100EC800FA077008F901F90701307A0200300319AE
:100ED8007902031CD62F831203132608AA002708B9
:100EE800AB002808AC002908AD0004300310AA0D97
:100EF800AB0DAC0DAD0DFF3E031D7A2F2D08F30091
:100F08002C08F2002B08F1002A08F0000030AE008F
:100F18001230AF007A30B0000030B1002608B200BD
:100F28002708B3002808B4002908B50004300310C6
:100F3800B20DB30DB40DB50DFF3E031D9B2FB209C5
:100F4800B309B409B509B20A0319B30A0319B40AF3
:100F58000319B50A3208AE0733080318330FB52F43
:100F6800B62FAF0734080318340FBB2FBC2FB007B8
:100F780035080318350AB1073108F7003008F600BC
:100F88002F08F5002E08F4000A128A11A9250A1262
:100F98008A117108FA01FA077008F901F90783162E
:100FA8000313181501307A02003003197902031867
:100FB8000800790883160313990018128312031383
:100FC8009817831603138717071783120313181626
:100FD800831603139816080083135830FD00043055
:100FE800FE003B30FF004B3084000A128A114C246B
:080FF80083010A128A11382E50
:02400E007AFF37
:00000001FF
