:020000040000FA
:06000000CCEF03F012003A
:020006001200E6
:0800080007EF00F01200DACF4F
:10001000E4FFE2CFDAFFE9CFE4FFEACFE4FFE65204
:10002000D9CFE6FFE1CFD9FFE6529EAA1AD09E9A19
:10003000AE50DF6E00018E51EA6A8F0FE96E000E3E
:10004000EA22DFCFEFFF8E2B0C0E8E5D0AE18E5180
:10005000EA6A8F0FE96E000EEA22EF6A8E6B010EDC
:100060008D6FE552E552E7CFD9FFE552E5CFEAFFC4
:10007000E5CFE9FFE5CFDAFF1100D9CFE6FFE1CF09
:10008000D9FF2C0EE66EDAEC03F0E552E552E7CF2D
:10009000D9FF1200D9CFE6FFE1CFD9FF020EE1264A
:1000A000DE6ADD6ADECF10F0DDCF11F0FD0EDBCFB2
:1000B00012F0FE0EDBCF13F01250105C13501158EB
:1000C0000AE2020EE66EACEC03F0E552DF2A010E06
:1000D00001E3DB2AE7D7020EE15C02E2E16AE552C6
:1000E000E16EE552E7CFD9FF1200D9CFE6FFE1CFAD
:1000F000D9FFFE0EDB50816EFD0EDB50E8B0838A27
:10010000E8A0839A839C838E640EE66EB6DFE55288
:10011000839EE552E7CFD9FF1200E66A380EE66EFD
:10012000E4DFE552E552640EE66EA7DFE552E66ACB
:100130000E0EE66EDADFE552E552640EE66E9DDFE6
:10014000E552E66A0C0EE66ED0DFE552E552640E2B
:10015000E66E93DFE552E66A060EE66EC6DFE5520E
:10016000E552640EE66E89DFE552E66A010EE66E40
:10017000BCDFE552E552640EE66E7FDFE552E66ACB
:10018000800EE66EB2DFE552E552640EE66E75DF74
:10019000E5521200D9CFE6FFE1CFD9FFFD0EDBCF4C
:1001A000F6FFFE0EDBCFF7FF0800F55014E0010E5E
:1001B000E66EFD0EDBCFF6FFFE0EDBCFF7FF08008D
:1001C000F550E66E92DFE552E552FD0EDB2AFE0E9B
:1001D00001E3DB2AE3D7E552E7CFD9FF1200D9CFFD
:1001E000E6FFE1CFD9FF050EE126040EDB6ADB6AEC
:1001F000DBCF10F0E76E1018E8AE02D0E73402D083
:10020000E750105C41E2FD0EDBCF14F0FE0EDBCFB9
:1002100015F00A0E0B6E0C6A14C006F015C007F03C
:1002200096EC03F002C014F003C015F0300E142653
:10023000000E1522D9CF10F0DACF11F0040EDBCF6B
:1002400012F0136A12BE136810501224E96E115096
:100250001320EA6E14C0EFFF0A0E106E116AFD0E35
:10026000DBCF06F0FE0EDBCF07F010C00BF011C0A5
:100270000CF096EC03F0FD0E06C0DBFFFE0E07C08F
:10028000DBFF040EDB2AB4D7030EF36E040EF3CFAC
:10029000DBFFDBCF10F010341FE2010EE66ED9CF8A
:1002A00010F0DACF11F0040EDBCF12F0136A12BE99
:1002B000136810501224E96E11501320EA6EEF50AB
:1002C000E66E13DFE552E552C80EE66EE8EC03F089
:1002D000E552040EDB06DDD7050EE15C02E2E16AC1
:1002E000E552E16EE552E7CFD9FF1200948E949C5F
:1002F0000C0EE66EE66A6C0EE66E33EC03F0E55229
:10030000E552E552C80EE66EACEC03F0E552120081
:10031000C00EF26EF16AF06A9E6AA16A9D6AA06AD6
:100320009F6AA26A9D8A9F8A9F989F0ED06E120034
:10033000808A8088F40EE66E010EE66EABDEE55232
:10034000E5528098809A640EE66EE66AA3DEE55276
:10035000E5521200808A8086F40EE66E010EE66E8B
:1003600099DEE552E5528096809A640EE66EE66A62
:1003700091DEE552E5521200D9CFE6FFE1CFD9FF79
:10038000020EE126010EDB6ADF6AFA0EDB50DF5C4B
:1003900040E2DF50E76EFD0EDBCFE9FFFE0EDBCF64
:1003A000EAFFE750E926000EEA22EFCF10F0DF5017
:1003B000E76EFB0EDBCFE9FFFC0EDBCFEAFFE75079
:1003C000E926000EEA22EF50105C21E0DF50E76ED4
:1003D000FD0EDBCFE9FFFE0EDBCFEAFFE750E9269B
:1003E000000EEA22EFCF10F0DF50E76EFB0EDBCFFE
:1003F000E9FFFC0EDBCFEAFFE750E926000EEA2218
:10040000EF50105CE76E010EE7CFDBFF02D0DF2A72
:10041000BCD7010EDB50106E020EE15C03E200D08F
:10042000E16AE552E16E1050E552E7CFD9FF1200C4
:10043000D9CFE6FFE1CFD9FF020EE126DF6A0F0E2A
:10044000C16E936A946A926A956A966A846A836AAC
:10045000030E806E050E816E0C0E826ED388D38AD9
:10046000D38CD382D390D3A4FED757DE1B0EE66E77
:10047000070EE66E8FDEE552E552E66AC00EE66EC6
:1004800034DEE552E5520A0EE66E070EE66E82DEB7
:10049000E552E552F40EE66E010EE66EFBDDE55226
:1004A000E55224DF35DF00018D0501E07BD08D6B47
:1004B0000C0EE66E8F0EE66E000EE66E800EE66E99
:1004C000000EE66E59DF106E050EE15E1050DF6E15
:1004D000DF5039E1E66A010EE66E07DEE552E552CD
:1004E0000A0EE66ECADDE552E66A800EE66EFDDDB6
:1004F000E552E5520A0EE66EC0DDE552FD0EE66EEF
:10050000060EE66E47DEE552E5528294640EE66E14
:10051000E66AC0DDE552E5520BDFF40EE66E010E31
:10052000E66EB8DDE552E55215DFF40EE66E010E1B
:10053000E66EB0DDE552E5528284640EE66EE66A50
:10054000A9DDE552E552DF502DE08294640EE66E9F
:10055000E66AA0DDE552E552E66A010EE66EC5DD0B
:10056000E552E5520A0EE66E88DDE552E66A800E37
:10057000E66EBBDDE552E5520A0EE66E7EDDE55223
:10058000F00EE66E060EE66E05DEE552E552F40E5E
:10059000E66E73DDE5528284640EE66EE66A7ADD0D
:1005A000E552E55280D7020EE15C02E2E16AE552D3
:0A05B000E16EE552E7CFD9FF12001B
:0605BA000100E60700004D
:0805C000800000000F000000A4
:0805C800BA0EF66E050EF76E87
:1005D000000EF86E00010900F550A16F0900F550FA
:1005E000A26F03E1A16701D03DD00900F5509C6FD7
:1005F0000900F5509D6F0900F5509E6F0900090034
:10060000F550E96E0900F550EA6E0900090009008D
:10061000F5509F6F0900F550A06F09000900F6CF53
:10062000A3F0F7CFA4F0F8CFA5F09CC0F6FF9DC0D3
:10063000F7FF9EC0F8FF00019F5302E1A05307E0BF
:100640000900F550EE6E9F07F8E2A007F9D7A3C0A6
:10065000F6FFA4C0F7FFA5C0F8FF0001A107000E38
:06066000A25BBFD71200EF
:0A066600D9CFE6FFDACFE6FFE1CFBF
:10067000D9FFE2CFDAFFAC6AAB6AFD0EDBB0AC8823
:10068000DBA202D0AC8CAB8CDBB4AC8EDBA602D090
:10069000AB8801D0AB8ADBB8AC849E98DBBAAB8662
:1006A000DBAC02D09D8A01D09D9A9E9ADBAE02D02F
:1006B0009D8801D09D98FB0EDB50AF6EFB0EFC0EAB
:1006C000DBCF11F011C010F0116A1050B06EAC8A7F
:1006D000AB8E949C948EAC50100B04E0AC50800B0D
:1006E00001E1948CE552E5CFDAFFE7CFD9FF1200A4
:1006F000556E617574686F72697A656400417574CE
:10070000686F72697A656420200053656375726949
:100710007479205379732E2020200057656C636F05
:0C0720006D6520546F20524649442000B3
:04072C00036A026AF0
:10073000100EE76ED89006360736023603360B5099
:10074000025C0C50035805E30B50025E0C50035A38
:08075000062AE72EF0D7120083
:08075800FF0EE350166E480E7F
:1007600001D04C0EE76EE72EFED7E76AE72EFED7E4
:08077000162EF7D7000012005D
:08077800000EF36E00EE00F02C
:10078000060E01D81200EA6002D0EE6AFCD7F350E0
:08079000E9601200EE6AFCD7DB
:0807980015EE00F025EE00F063
:1007A000F86A0F9CE4EC02F003EC00F018EC02F0A5
:0407B000FBD7120061
:0C07B400FF0EE350166E1B0E00D001D0AB
:1007C000200EE76EE72EFED7162EFAD700D01200C5
:1007D000FF0EE350E84E1200000000D000D000D021
:0607E000E82EFAD712001A
:0A07E6003435303034313133343013
:0507F000353700000098
:020000040030CA
:0100010048B6
:010002001EDF
:010003001EDE
:0100050001F9
:010006008178
:010008000FE8
:00000001FF
